:020000022000DC
:1020000000000420C5E10200EDE10200EFE1020062
:10201000F1E10200F3E10200F5E10200000000003E
:10202000000000000000000000000000F7E10200D6
:10203000F9E1020000000000FBE10200FDE1020006
:10204000756C0200FFE10200F97A0200FFE1020074
:10205000FFE10200FFE10200A1700200FFE10200C7
:10206000FFE10200FFE10200FFE10200FFE10200E8
:10207000FFE10200FFE10200FFE10200FFE10200D8
:10208000FFE1020089350200FFE10200FFE10200EA
:1020900051360200FFE10200B9FC0200FFE102003C
:1020A000FFE10200FFE10200FFE10200FFE10200A8
:1020B000FFE10200FFE1020000000000000000005C
:1020C000FFE10200FFE10200FFE10200FFE1020088
:1020D000FFE10200FFE10200FFE10200FFE1020078
:1020E000FFE10200FFE10200FFE10200000000004A
:1020F00000000000FFE1020000000000FFE102001C
:1021000000000000000000000000000000000000CF
:1021100000000000000000000000000000000000BF
:1021200000000000000000000000000000000000AF
:10213000000000000000000000000000000000009F
:10214000000000000000000000000000000000008F
:10215000000000000000000000000000000000007F
:10216000000000000000000000000000000000006F
:10217000000000000000000000000000000000005F
:10218000000000000000000000000000000000004F
:10219000000000000000000000000000000000003F
:1021A000000000000000000000000000000000002F
:1021B000000000000000000000000000000000001F
:1021C000000000000000000000000000000000000F
:1021D00000000000000000000000000000000000FF
:1021E00000000000000000000000000000000000EF
:1021F00000000000000000000000000000000000DF
:1022000010B5054C237833B9044B13B10448AFF330
:1022100000800123237010BDA023002000000000D7
:102220000010030008B5034B1BB103490348AFF38B
:10223000008008BD00000000A4230020001003005F
:10224000154B002B08BF134B9D46A3F5803A002188
:102250008B460F461348144A121A0DF0EDFE0F4B31
:10226000002B00D098470E4B002B00D09847002041
:10227000002104000D000D48002802D00C48AFF3E7
:1022800000800DF07BFE2000290006F04BFD0DF0D4
:1022900061FE00BF000008000000042000000000F4
:1022A00000000000A0230020F03400200000000007
:1022B00000000000F0B595B0002415460F46084612
:1022C0001E4604F0EFF9384623460895082205A972
:1022D0001A9D09960D950A948DF82C400C9404F0E3
:1022E00047FA9DF814308DF81040DDE9061003F030
:1022F0000302012A0290ADF80C102BD0022A04D060
:10230000384604F0DFF915B0F0BDBDF81650C3F340
:10231000C202C3F38003AD098DF80E208DF80F3093
:102320000826082D2C4628BF0824334622460EA92D
:10233000384604F01DFA2D1B214608AB02AA0EA850
:10234000264400F06BFE002DEBD1384604F0BAF9BC
:1023500015B0F0BDBDF814500598C5F38315C3F34F
:10236000C20CAA000EA9C3F38004C0F3952608236B
:1023700038468DF80EC08DF80F4004F0F9F908AB1F
:102380002A4630460EA9009302AB00F0AFFD384656
:1023900004F098F915B0F0BD014B01221A70704796
:1023A00000240020704700BF70B50E4D0E4888B065
:1023B00005F05CFA0FCD6C460FC495E80F0008AD30
:1023C000062645F8206D84E80F00294600220648BD
:1023D00005F01AF908B100F0AFFF044B00221A70A3
:1023E00008B070BD9003030088200020BC230020AB
:1023F00000B583B0044B0093044A4023FFF75AFF13
:1024000003B05DF804FB00BF11240200C0230020CC
:1024100010B5094C09480023D2B2237005F0C2FA66
:1024200030B9074B1B7813B12378002BFCD010BDBB
:1024300000F082FFF5E700BF002400208820002084
:10244000BC23002070B50D4D0FCD88B06C460FC475
:1024500095E80F0008AD062645F8206D84E80F00CA
:102460002946074A074805F0CFF808B100F064FF95
:10247000054B01221A7008B070BD00BF9003030025
:102480009923020088200020BC23002010B5054CB1
:10249000FFF7D8FF2046042100F0E6FC0123637219
:1024A00010BD00BF902000202DE9F047824C002392
:1024B00084B0C4F81834BFF34F8FD4E9017607EA2B
:1024C0000601CB1C04EB830214F8233098073D4629
:1024D0000FD1138852889B0903EB921301331D44DB
:1024E00006EA0501CB1C04EB830214F823309B079A
:1024F000EFD004EB81016A1CCB680193324004EBFE
:10250000820203F00303D2680292022B05F1020853
:102510000FD0012B75D0032B06D02068C01B18BF2D
:10252000012004B0BDE8F087D4F818040028F4D1E5
:10253000F7E7BDF8063061484FEA93194D46502D34
:1025400028BF502565F38F1305F10801ADF806305B
:1025500004F066F80746002851D026EA080A0AF176
:10256000010A04F09FF84FEA8A0A0023082201A911
:10257000384604F0CFF8554540F29080EBB2BAF1FE
:10258000000F00F0848006EA0801A3EB0A03033180
:1025900004EB8101DDB252460823384604F0BAF854
:1025A0002A460AF108034649384604F0B3F809F10F
:1025B000030908EB9909D4F81834002B62D1D4F838
:1025C000105455B16B7A28463946002B56D02B68EB
:1025D0001B6898476D68002DF4D1384604F072F8F6
:1025E00004A8002300F80D3D01F0CCFCD4F8183409
:1025F0000BB9C4F804909DF8030001F0E9FC67688A
:102600008BE7BDF804302D48C3F38311062928BF9A
:10261000062161F3891302318900ADF8043003F01B
:10262000FFFF07460028EAD004F03CF80023082208
:1026300001A9384604F06EF8BDF8043013F4707F39
:1026400037D06FF0010AAAEB050A082506EA08014F
:1026500003312B46042204EB8101384604F05AF87A
:10266000BDF8043008F101090AEB0902C3F3831332
:102670009A42C84605F10405E8D39CE76D68002D31
:10268000A0D1AAE7384604F01DF8676845E72A4656
:1026900008230B49384604F03DF888E706EA0801AC
:1026A000033104EB81012A460823384604F032F84E
:1026B0007DE7C1467FE700BF04240020BC03030080
:1026C0001024002008B50E4B0E480022FF21C3F84D
:1026D00018249960C3E90022C3F8142483F81C2449
:1026E00003F09CFF58B90849084BC91AC90806D01D
:1026F000074A034622F80C3B01339942FAD108BD40
:1027000004240020BC030300B41003006410030081
:102710001423002021B9134A02EBC000006870475F
:1027200030B411490F4C091BC90816D00F4B5A88F9
:10273000824218BF002205D111E0DD89854203F1F4
:102740000C0305D001329142F7D1002030BC704714
:1027500004EBC200006830BC70470846F6E720462C
:10276000F8E700BF64100300B41003001423002036
:10277000094B013903EBC00003290BD8DFE801F056
:1027800002080604022070474079704700797047BC
:102790000420704700207047641003002DE9F04FBB
:1027A00089B008AB002703F80D7D604C02901846F5
:1027B000A3680193039101F0E5FBD4E901E0D4F8AB
:1027C000008000EB0E030133A3EB0803032B60D85A
:1027D00000F1010AAAEB080A04F5836C04F214461E
:1027E00000EA0E0901255CE8003F43EA05024CE8D7
:1027F000002191F0000FF6D156E8003F43EA0502B0
:1028000046E8002191F0000FF6D109F1030304EB33
:10281000830114F823309B07CB46724610D10B88F6
:1028200049889B0903EB911301331A4400EA020B18
:102830000BF1030304EB830114F823309B07EED064
:1028400004EB8B0B0232DBF80C30059303F003032F
:10285000012B65D0022B05D1BDF816309B0903333F
:1028600002EB930256E8003F03EA070146E8001B2B
:102870009BF0000FF6D143B10AEB0203032B626019
:1028800007D8964600EA0209ADE70AEB0E03032BD0
:10289000A9D908EA0000C31C08F1020114F823209A
:1028A0009DF8130042F0030204F82320216001F098
:1028B0008FFB019A029908F10103134004EB830393
:1028C00002EA080808F103080A0CDA6014F8283054
:1028D0000A0962F3820361F3C50304F8283034F86F
:1028E0002830039A6FF3891324F8283054F82830DD
:1028F00062F39F231A46012161F3010244F8283054
:1029000004F8282094F81C341BB906E0FFF7CCFD2E
:1029100018B1D4E900329A42F8D109B0BDE8F08F7D
:10292000BDF81430C3F383131A449BE7042400203A
:102930002DE9F04F89B008AB002703F80D7D644CFA
:1029400001901846A3680093CDE9021201F01AFB2A
:10295000D4E901E0D4F8008000EB0E030133A3EBCF
:102960000803042B60D800F1010AAAEB080A04F559
:10297000836C04F2144600EA0E0901255CE8003F6E
:1029800043EA05024CE8002191F0000FF6D156E829
:10299000003F43EA050246E8002191F0000FF6D11E
:1029A00009F1030304EB830114F823309B07CB46A2
:1029B000724610D10B8849889B0903EB91130133B0
:1029C0001A4400EA020B0BF1030304EB830114F831
:1029D00023309B07EED004EB8B0B0232DBF80C307C
:1029E000059303F00303012B6CD0022B05D1BDF836
:1029F00016309B09033302EB930256E8003F03EACB
:102A0000070146E8001B9BF0000FF6D143B10AEB2B
:102A10000203042B626007D8964600EA0209ADE77C
:102A20000AEB0E03042BA9D908EA0000C31C08F125
:102A3000030114F823209DF8130042F0030204F868
:102A40002320216001F0C4FA00990198039D08F148
:102A5000020208F101030A400B4004EB820204EB7E
:102A6000830301EA080808F10308010CD560D96066
:102A700014F82830020962F3820360F3C50304F8F6
:102A8000283034F82830029A012161F3891324F8A0
:102A9000283054F8283062F39F231A4661F301026C
:102AA00044F8283004F8282094F81C341BB906E0B8
:102AB000FFF7FAFC18B1D4E900329A42F8D109B014
:102AC000BDE8F08FBDF81430C3F383131A4494E7C4
:102AD000042400202DE9F04F8BB00AAD00276A4C8A
:102AE00005F80D7D029005932846A3680193CDE972
:102AF000031201F047FAD4E901E0D4F8008000EBBA
:102B00000E030133A3EB0803052B60D800F1010A83
:102B1000AAEB080A04F5836C04F2144600EA0E09D5
:102B200001255CE8003F43EA05024CE8002191F0F2
:102B3000000FF6D156E8003F43EA050246E80021BF
:102B400091F0000FF6D109F1030304EB830114F8AF
:102B500023309B07CB46724610D10B8849889B09CE
:102B600003EB911301331A4400EA020B0BF1030348
:102B700004EB830114F823309B07EED004EB8B0B9E
:102B80000232DBF80C30079303F00303012B74D0FF
:102B9000022B05D1BDF81E309B09033302EB9302D3
:102BA00056E8003F03EA070146E8001B9BF0000FD0
:102BB000F6D143B10AEB0203052B626007D89646B3
:102BC00000EA0209ADE70AEB0E03052BA9D908EAD2
:102BD0000000C31C08F1040114F823209DF81B0019
:102BE00042F0030204F82320216001F0F1F901987A
:102BF000029D049E08F1020108F1030208F101039D
:102C000001400240034004EB810104EB820204EB2B
:102C1000830300EA0808CE6008F103080599D16033
:102C2000280CD86014F828302A0962F3820365F36F
:102C3000C50304F8283034F82830022262F38913DF
:102C400024F82830039A54F8283062F39F231A4658
:102C5000012161F3010244F8283004F8282094F897
:102C60001C341BB906E0FFF71FFC18B1D4E9003291
:102C70009A42F8D10BB0BDE8F08FBDF81C30C3F319
:102C800083131A448CE700BF042400202DE9F04F81
:102C90008BB06E4C05930AAD002705F80D7DA66834
:102CA000CDE901602846CDE9031201F06BF9D4E9C2
:102CB00001E0D4F8008000EB0E030133A3EB08031E
:102CC000062B60D800F1010AAAEB080A04F5836C10
:102CD00004F214460EEA000901255CE8003F43EACD
:102CE00005024CE8002191F0000FF6D156E8003FB4
:102CF00043EA050246E8002191F0000FF6D109F100
:102D0000030304EB830114F823309B07CB46724680
:102D100010D10B8849889B0903EB911301331A44A6
:102D200000EA020B0BF1030304EB830114F82330D8
:102D30009B07EED004EB8B0B0232DBF80C300793D1
:102D400003F00303012B7BD0022B05D1BDF81E300D
:102D50009B09033302EB930256E8003F03EA0701A5
:102D600046E8001B9BF0000FF6D143B10AEB0203CB
:102D7000062B626007D8964602EA0009ADE70AEB27
:102D80000E03062BA9D908EA0000C31C08F10501AF
:102D900014F823209DF81B0042F0030204F82320BE
:102DA000216001F015F9019D059E08F102002840FF
:102DB00008F1030108F1040208F1010304EB8000AB
:102DC00029402A402B4005EA0808049DC56004EB11
:102DD0008101029DCE6004EB820204EB830308F1C3
:102DE00003081499D160280CD86014F828302A09F7
:102DF00062F3820365F3C50304F8283034F8283001
:102E0000032262F3891324F82830039A54F82830F7
:102E100062F39F231A46012161F3010244F828302E
:102E200004F8282094F81C341BB906E0FFF73CFB9B
:102E300018B1D4E900329A42F8D10BB0BDE8F08F56
:102E4000BDF81C30C3F383131A4485E70424002023
:102E5000044BD3E900239A4201D0FFF725BB0020A1
:102E6000704700BF0424002030B4154DD5F810443D
:102E7000002154B1237A8B4213D0234602E01A7A00
:102E80008A420ED05B68002BF9D10172D5F810345C
:102E90007BB15B684360D5F81034586030BC08469D
:102EA000704701310A29E4D14FF0FF31084630BCA8
:102EB0007047C5F81004436030BC0846704700BF37
:102EC0000424002038B5084BD3F81044012583F8BA
:102ED0001C543CB12368657220465B68984764685F
:102EE000002CF7D138BD00BF042400202DE9F047A5
:102EF00084B01D460C9C002394F80C802373EB795E
:102F000081460E461746DBB1062F09D8DFE807F0E9
:102F10000430363D46515E004946204602F0DAFC58
:102F2000EB792BB92B7AEBB93649204602F0D2FC6B
:102F3000204602F0C3FC84F80C8004B0BDE8F087A2
:102F40002B7AA888A979002B4FD12F4B53F821A0B9
:102F50000021FFF7DFFB524603462C49204602F0D2
:102F6000B9FCD1E72A4A2B49204602F0B3FCDBE743
:102F700032684946204602F0ADFCD1E74946D6E921
:102F80000023204602F0A6FCCAE7B168D6E9002378
:102F900020460091494602F09DFCC1E7D6E90201B6
:102FA000D6E90023019100904946204602F092FCA8
:102FB000B6E7D6E90371B068D6E900230291CDE9FE
:102FC00000074946204602F085FCA9E7D6E904102F
:102FD000D6E900230390D6E902070291CDE9000764
:102FE0004946204602F076FC9AE7FFF7C1FB0A4B00
:102FF000084953F82020204602F06CFCA979A888E3
:10300000A3E700BF24040300280403001004030006
:103010001C0403000C040300D403030008295CD83B
:103020002DE9F04F1D46914600232A7B2B7383B078
:1030300099F80730019207460E46002B4ED0DFF874
:1030400008B1DFF80881002405E03A5D013402F0A0
:1030500041FC082C09D0A64241462846F5D85946DD
:10306000013402F037FC082CF5D13049DFF8E0805C
:10307000DFF8E0B0284602F02DFC002411E017F83C
:1030800004A00CF09FFF50445946437813F0970F6B
:1030900014BF52462E222846013402F01BFC082C95
:1030A00008D0A64241462846E9D8013402F012FC75
:1030B000082CF6D199F8073013B999F808300BBBF2
:1030C0001B49284602F006FC284602F0F7FB9DF853
:1030D00004302B7303B0BDE8F08F704799F80830C7
:1030E000B9F8040099F8061093B9124B53F821402F
:1030F0000021FFF70FFB224603460F49284602F046
:10310000E9FB9CE70D4A0E49284602F0E3FBD7E7AE
:10311000FFF72EFB0B4B0A4953F82020284602F0FC
:10312000D9FB99F80610B9F80400DEE7040403009F
:103130002404030028040300100403001C040300FB
:103140000C040300D403030000040300F80303008D
:1031500018040300080403002DE9F84F254B93F8E9
:1031600000C0BCF1000F31D0DFF88CB0DFF88CA0CC
:10317000DFF88C900024012703E00134E4B26445B9
:1031800024D226B2DBF80050DAF8003015F8360009
:1031900007FA00F10B4205EBC608EED023EA010363
:1031A000CAF8003003F06CFF15F83660D9F800302B
:1031B00007FA06F52B4000FA06F18B4208D00D4BBA
:1031C000013493F800C0E4B26445DAD3BDE8F88F67
:1031D00098F80110D8F80430A1F10101B1FA81F199
:1031E0004909091AB1FA81F14909002BE7D03046A3
:1031F0009847E4E7F4280020242900202029002013
:103200001C29002070B50646114800F081FE40B927
:10321000104D01242B68B440234203D023EA040458
:103220002C6070BD304603F02BFF0B490A6860B17B
:1032300022432B6809480A601C4301682C6004483B
:103240000022BDE8704000F00DBE22EA0402F0E763
:10325000FC280020202900201C290020F82800201C
:10326000042A34D92DE9F04182B00F4606461446AF
:1032700003F0A0FD002834D01C4A1D4B1D491660E8
:103280001F701D4A1D4B0C6000257C1E15601D60C3
:10329000E4B2F7B106EBC404194F083E4FF003083F
:1032A00001E0B44215D0A37820788DF804803A4626
:1032B00001A98DF806508DF807508DF8053003F000
:1032C00083FD083C0028ECD002B0BDE8F081072067
:1032D00070470C4A0C48002100F0B2FD02B0BDE876
:1032E000F08103F029FD0028C6D0EDE72429002055
:1032F000F4280020F82800201C2900202029002084
:1033000005320200593102009C04030070B5084DDB
:103310002B785BB1074E00243368012113F8340089
:1033200003F032FE2B780134A342F5D8002070BDA3
:10333000F42800202429002000B585B00023039044
:10334000194601AA44F20100ADF80430029300F0DE
:1033500003F805B05DF804FB10B5FFF7B3FDFFF708
:1033600077FD0028FBD1104C10492088000440F064
:103370000100FFF713FA0E4B1B68DB0700D5FFDED9
:1033800020880C49000440F00200FFF707FABFF361
:103390004F8F0949094BCA6802F4E0621343CB60BE
:1033A000BFF34F8F00BFFDE714230020A0040300EC
:1033B000F0ED00E0AC04030000ED00E00400FA05CD
:1033C000F0B412F0030412D14B1CDB000A4D0B4E7B
:1033D0000B4F34709BB213442B600A4E0A4D0B4BBB
:1033E00028803A60347019802046F0BC704707246A
:1033F0002046F0BC704700BF2C290020282900205F
:1034000030290020382900203429002036290020C6
:103410002DE9F0472D4F3B888B4282B03CD30546C7
:1034200002A84FF0000800F8018D16460C4600F087
:10343000A9FD274B274A284819781378B0F800C00F
:103440009DF80700DBB2634538BF0133C9B238BF0E
:103450005FFA83F8414523D092F800801378DFF8B3
:103460008090DBB29C4586BF0133DBB200235FFA5C
:1034700088F8137000F0ACFDD9F800300FFA88F22C
:103480004FEAC20A43F83260534405B174B90020D0
:10349000988002B0BDE8F087092002B0BDE8F0874F
:1034A00000F096FD042002B0BDE8F0870B4B388891
:1034B0001B68294608FB003022460CF0B2FDD9F803
:1034C00000309A440020AAF80440E2E734290020A2
:1034D0003829002028290020362900202C29002006
:1034E000302900202DE9F84F1B4C1C4D22782B78F9
:1034F0009A4226D0DFF86CA0DFF86C90184FDFF806
:103500006CB04FF000082378DAF800203888D9F83A
:103510000060DBB20FFA83FE02EBCE0103FB00601A
:10352000898852F83E3098472378BBF80010DBB208
:103530005A1C9942D2B206D9227023782A789A422C
:10354000E1D1BDE8F88F84F8008022782B789A4288
:10355000D9D1BDE8F88F00BF3829002028290020E4
:1035600034290020302900202C2900203629002071
:10357000082910B5044602D00020FFF7DDFED4E98B
:103580000030BDE8104018472DE9F041284A294B8A
:103590000024C2F84041C2F84441C2F84841C2F890
:1035A0004C41C2F80041C2F804411B6882B033B3F9
:1035B0002149D2F804550A68204EAD1A1A6825F040
:1035C0007F45AA4227460CD8197CD3F81C80AD1A37
:1035D0001444B9B9B8F1000F03D043461A68AA429F
:1035E000F2D91749174A0B7812789A4219D016491E
:1035F000164A41F823404FF48013C2F8003102B05C
:10360000BDE8F0811F74D3E90532082101926846B4
:1036100032460093FFF7FCFE0028DBD0FFF78CFE5C
:10362000D8E7531CDBB2022B08BF00230B70DEE788
:10363000001001405C2A0020582A00207135020049
:10364000552A0020542A00204C2A002000E100E0E6
:103650002DE9F04FAF48B04AB04913780978D0F857
:103660000090AF4889B000680290994200F04E8106
:103670000133DBB2022B08BF00231370A94A52F8B2
:103680002300A44B09EB000727F07F471F60029B34
:1036900000252A462C46AC46B3B11968814200F297
:1036A0004D81DD68C3F800C0401A0C44D9693DB1B2
:1036B00009EB040626F07F46C3E90165DA611A4684
:1036C0000B460125002BE8D1002D40F09B81012302
:1036D00002990693B946944B944C1B7805934FF08E
:1036E00000084B46CDF81C80CDF80C804FF0010E41
:1036F000C1468C469B4642B3D2E901651346D26966
:103700008B48A6EB0B0121F07F41814259D8294417
:103710001960002083F810E0C3E90100D861BCF112
:10372000000F72D0DCF8000088425FD2664603E0EA
:103730002868884263D22E46F569091A002DF7D110
:103740001960DD61F361002AD6D1CA46CDF804B014
:1037500094F8019021784FF0000B1646894576D0F9
:10376000084600EB400004EBC0004A1CA378D1B22D
:10377000027921708B4204BF84F800B00021022A34
:10378000836853D0032A44D0012AE7D11F7C002F3D
:10379000E4D13246C6685E6005699D604169D960C2
:1037A000816999610599DDF804B0D1460029A7D057
:1037B0003E46A6EB0B015E485F6021F07F418142EF
:1037C000A5D9ABEB060121F07F41A94202D2691ACB
:1037D00019609EE7002183F810E0C3E900119960A9
:1037E000D961BCF1000F10D0DCF80000411ACCF810
:1037F00000104FF00108C3F81CC09C467BE7401A3C
:1038000028601960DD61F3619DE79C464FF0010877
:1038100071E7BCF1000FA1D0624600231374D26996
:10382000002AFBD194464FF0010891E7BCF1000F4C
:1038300009D06345624603D192E083424FD00246ED
:10384000D0690028F9D183F810B0894588D1C346E2
:10385000DDF80490D046BBF1000F40F0D780079B05
:10386000002B40F01A82B8F1000F03D02E4B9DF8C8
:1038700014201A702A4B1A68039B1BB9029B9A42A8
:1038800000F0C880002A00F0CC802A48214BD0F8F4
:1038900004151B68284C15682678CA1A22F07F4246
:1038A0000332002E00F0A68195422CBF5B199B18B5
:1038B000204823F07F43C0F84035D0F80425521A41
:1038C0005B1A22F07F4223F07F4303329A4200F2D8
:1038D0004781154A0023137009B0BDE8F08F934269
:1038E00036D0674604931D46E8692D68D06128B13B
:1038F00002682A440260217894F801906745A2D0BA
:103900000122BC46039283F810B09EE70022069283
:103910000146E0E6582A0020542A0020552A0020BB
:103920005C2A00204C2A0020482A00203C29002044
:10393000FEFF7F0000100140492A0020002D40F0CA
:10394000B081091A19600123B94606930299C2E6AB
:103950000493DCF81C7037B14FF00108049DC3E7F5
:10396000CDF810C0F5E77748774DC0F808E0774804
:103970004FF02F08006800BF00BF00BF00BF00BFAE
:1039800000BF00BF00BFA8422FD000BF00BF00BFD4
:1039900000BF00BF00BF00BF00BF00BF00BF00BF2F
:1039A00000BF00BF00BF00BF00BF00BF00BF00BF1F
:1039B00000BF00BF00BF00BF00BF00BF00BF00BF0F
:1039C00000BF00BF00BF00BF00BF00BF00BF00BFFF
:1039D00000BF00BF00BF00BF00BF00BF00BF00BFEF
:1039E00000BF00BF00BF00BF00BFB8F10108C2D1D7
:1039F0004FF0010A0197CDF814A0CDF81CA0D046D5
:103A0000049D71E7524902930B6060E6504BC3F886
:103A100000C024E7069B002B3FF45BAF002A7FF435
:103A200034AF48494B4B494E474C4FF480304FF42C
:103A300000370125C3F88070C1F848032F23C1F86F
:103A400008034D6030681E4600BF00BF00BF00BFC6
:103A500000BF00BF00BF00BFA0422FD000BF00BF0B
:103A600000BF00BF00BF00BF00BF00BF00BF00BF5E
:103A700000BF00BF00BF00BF00BF00BF00BF00BF4E
:103A800000BF00BF00BF00BF00BF00BF00BF00BF3E
:103A900000BF00BF00BF00BF00BF00BF00BF00BF2E
:103AA00000BF00BF00BF00BF00BF00BF00BF00BF1E
:103AB00000BF00BF00BF00BF00BF00BF013EC3D1B9
:103AC0008D6025490A6000BF00BF00BF00BF00BF76
:103AD00000BF00BF00BFA0422FD000BF00BF00BF8B
:103AE00000BF00BF00BF00BF00BF00BF00BF00BFDE
:103AF00000BF00BF00BF00BF00BF00BF00BF00BFCE
:103B000000BF00BF00BF00BF00BF00BF00BF00BFBD
:103B100000BF00BF00BF00BF00BF00BF00BF00BFAD
:103B200000BF00BF00BF00BF00BF00BF00BF00BF9D
:103B300000BF00BF00BF00BF00BF013BC3D1074BA8
:103B40001A70C6E6001001400024F400382100205D
:103B50005C2A002000E100E0582A0020492A0020C9
:103B6000D0F80435514AC0F84035126850492F2327
:103B700000BF00BF00BF00BF00BF00BF00BF00BF4D
:103B80008A422FD000BF00BF00BF00BF00BF00BFF0
:103B900000BF00BF00BF00BF00BF00BF00BF00BF2D
:103BA00000BF00BF00BF00BF00BF00BF00BF00BF1D
:103BB00000BF00BF00BF00BF00BF00BF00BF00BF0D
:103BC00000BF00BF00BF00BF00BF00BF00BF00BFFD
:103BD00000BF00BF00BF00BF00BF00BF00BF00BFED
:103BE00000BF00BF013BC3D1324B4FF40032C3F8DA
:103BF00000216EE62F4EDFF8B4E0DFF8B4C04FF4DA
:103C00008037C0F84473C0F804734FF40037C6F827
:103C10008071376001260660DEF800702F2000BF3B
:103C200000BF00BF00BF00BF00BF00BF00BF6745AF
:103C30002FD000BF00BF00BF00BF00BF00BF00BF4C
:103C400000BF00BF00BF00BF00BF00BF00BF00BF7C
:103C500000BF00BF00BF00BF00BF00BF00BF00BF6C
:103C600000BF00BF00BF00BF00BF00BF00BF00BF5C
:103C700000BF00BF00BF00BF00BF00BF00BF00BF4C
:103C800000BF00BF00BF00BF00BF00BF00BF00BF3C
:103C900000BF0138C3D1267006E6074BC3F8009079
:103CA000E1E5064C029323604BE600BF382100207B
:103CB0000024F40000E100E0582A00205C2A0020E3
:103CC000F0B4554B554A564E564C4FF480304FF495
:103CD00000310125C2F88010C3F848032F21C3F832
:103CE00008035D6030680E4600BF00BF00BF00BF24
:103CF00000BF00BF00BF00BFA0422FD000BF00BF69
:103D000000BF00BF00BF00BF00BF00BF00BF00BFBB
:103D100000BF00BF00BF00BF00BF00BF00BF00BFAB
:103D200000BF00BF00BF00BF00BF00BF00BF00BF9B
:103D300000BF00BF00BF00BF00BF00BF00BF00BF8B
:103D400000BF00BF00BF00BF00BF00BF00BF00BF7B
:103D500000BF00BF00BF00BF00BF00BF013EC3D116
:103D60009D6000BF00BF00BF00BF00BF00BF00BF1D
:103D700000BFA0422FD000BF00BF00BF00BF00BFE8
:103D800000BF00BF00BF00BF00BF00BF00BF00BF3B
:103D900000BF00BF00BF00BF00BF00BF00BF00BF2B
:103DA00000BF00BF00BF00BF00BF00BF00BF00BF1B
:103DB00000BF00BF00BF00BF00BF00BF00BF00BF0B
:103DC00000BF00BF00BF00BF00BF00BF00BF00BFFB
:103DD00000BF00BF00BF0139C3D1134E134C1449BB
:103DE000144D154F00203070206008704FF480147F
:103DF0000B26E0212880AE703870104DC2F880414B
:103E000082F814131460C3F8080582F81113D3F86C
:103E100004352B60F0BC70470010014000E100E069
:103E2000382100200024F400492A00205C2A0020C8
:103E3000542A00203C290020552A0020582A00201E
:103E4000074B9B784BB132B128B10368187C20B97D
:103E500059745A617047072070470820704700BFA7
:103E60003C2900202DE9F047264CA37882B0002B96
:103E70003CD000283AD004293CD94369002B35D0E6
:103E8000814602A899F811300026012B00F8016D37
:103E90000CBF8846B04617468A4600F073F8637830
:103EA000A17822789DF807005D1CEDB2A94208BFF9
:103EB0003546AA4222D003EB430304EBC30301219E
:103EC000114AC3F808901971D2F804256570C3E946
:103ED000032AC3E9058700F07BF80C4B4FF48012EE
:103EE0003046C3F8002102B0BDE8F087082002B0D8
:103EF000BDE8F087072002B0BDE8F08700F068F861
:103F00000420F0E73C2900200010014000E100E01F
:103F1000F0B51A4CA37883B043B338B343692BB3DD
:103F2000064602A8002500F8015D357400F02AF865
:103F30006278A77821789DF80700531CDBB29F4276
:103F400008BF2B46994214D002EB420204EBC20296
:103F5000022196601171637000F03AF8084B4FF43B
:103F600080122846C3F8002103B0F0BD082003B03A
:103F7000F0BD00F02DF80420F9E700BF3C29002037
:103F800000E100E070B4EFF3108472B60D4B9A6854
:103F9000AAB90D490D4E01259D60D1F880503540DC
:103FA0001D60C1F88060D1F884505D604FF0FF3330
:103FB000C1F88430027004B962B670BC7047012346
:103FC0000370F8E7E434002000E100E0FC06FFBDE8
:103FD000094B9A687AB170B910B4EFF3108272B6D7
:103FE00006491C680C605C684C60986002B962B657
:103FF0005DF8044B70477047E434002000E100E0B6
:10400000F0B443681BB1384AD468A34246D20023B7
:10401000364F0B807A684FF0010C02F580544FF652
:10402000FF76083294420ED8BCF1020FA1F800C00E
:1040300007F1140754D07A6802F58054083294428C
:104040004FF0020CF0D913680133EDD053880333DD
:1040500002EB83039C42E7D39588B5420AD01588CA
:1040600045B1956803689D4211D05388033302EB34
:104070008302D7E79C42D7D91A6801321A46D3D0B7
:104080005D88033503EB85039C42E5D2CCE7184BF2
:1040900042601B8903810120F0BC70471269934282
:1040A000B5D813F00305B2D1114A0489128994429C
:1040B000ADD104689A689442A9D10C4842689342F1
:1040C00003D902F58052934207D38269934207D9FC
:1040D00002F58052934203D201250D800120DBE7D7
:1040E0000020F0BC704700BF8C230020A02A0020D5
:1040F000842A0020F0B5334C334DB4F802C0626816
:104100004FEA8C0606EB0C0305EB830383B059687A
:1041100001F58050002A52D05388033302EB83020A
:10412000904213D8664405EB8605EB68002B3DD022
:10413000264B2748196802229A8005250023012270
:10414000257003B0BDE8F04001F074BF136801337F
:10415000E8D05388033302EB83038342E2D84FF65F
:10416000FF7E9788774514D0178897B1626053888F
:10417000164D1748AE882968033300259BB2009579
:104180009B0001EB86010325257001F01FFF03B0A2
:10419000F0BD9842C6D91A6801321A46C2D05F886B
:1041A000033703EB87039842DBD2BBE708480425BB
:1041B0000122257003B0BDE8F04001F03BBF01F1E2
:1041C0000802ADE7842A0020A02A0020682B0020E6
:1041D0008C2300202DE9F04FDFF8D88289B0074604
:1041E0004FF6FF79D8F80040002C00F0D8802278F4
:1041F000531E052B55D8DFE803F0472B2B19190365
:10420000002F40F0C480A14C227B2378002A00F0CC
:104210002F81013B2773062B43D8DFE813F0A1035E
:10422000AE02EE01C9014200D702B202002F40F0F7
:10423000AE802379012B00F03F81C0F0D580022BA6
:104240002FD103AD2846142239460BF0F5FE2FE09E
:10425000A58A8F4E4FEA850A0AEB050306EB830316
:104260001889002F40F0A3805F68A37D07EB8007CB
:10427000062B00F28883DFE813F01D022B023D02BB
:104280005102D30102021A02002F40F0A2802379CA
:10429000032B00F2E280DFE813F0590168017D0191
:1042A0003B0103AD2846142200210BF0C5FE0F2769
:1042B000D8F8002004971378013B052B07D8DFE8D6
:1042C00003F053573F33280305238DF80C30714C0E
:1042D00004F1100654F8043B284603B19847A6425F
:1042E000F8D100236C496D48C8F8003001F076FA27
:1042F0006B4B012253E8000FA0EB020143E80014CE
:1043000094F0000FF6D100297FF46CAF09B0BDE83E
:10431000F08F04238DF80C30D388ADF818300023CB
:10432000ADF81A300593D2E703238DF80C30D3880B
:10433000ADF818301389ADF81A30D3680593C6E785
:1043400002238DF80C301389ADF818309388ADF83E
:104350001A30D3680593937DA3F10603B3FA83F370
:104360005B098DF81C30B2E700238DF80C30AEE706
:1043700001238DF80C301389ADF818309388ADF80F
:104380001A30D368059300238DF81C309FE703ADE6
:104390002846142200210BF04FFE012788E73E49F2
:1043A0003E4801F0EDF90446C8F800001FE7E28836
:1043B0005C89C2F57F41FD3103320244214403ADE3
:1043C0001A8159812846142200210BF035FE01275D
:1043D0006EE7344A002303AD536019462846142281
:1043E0000BF02AFE012763E702232371CDE904774E
:1043F00003ADE368039328460DF10A01FFF700FEC1
:10440000002800F0AA810499274A8B88E3800B8852
:104410002381264800970423BDF80A4001F0D6FD09
:10442000002840F0A1821A4B04EB840403EB8404BF
:10443000012323746AE701239A001A4406EB8203DE
:10444000002059680090082306F82200184A1748EF
:1044500001F0BCFD00283FF459AF124A002303AD20
:1044600053601946284614220BF0E6FD0E271FE77D
:10447000072B00F26082DFE813F0E9015E025E02C2
:104480007701D70184018401BB0100BF842A002089
:10449000A02A00206C2A0020942A0020542B0020FF
:1044A000642B00207C2A0020BC0403008C23002005
:1044B000C00403009C2A0020B94B1B78002B00F09D
:1044C0003F81DFF8E4C2BCF80450012D13D8B54E8B
:1044D00005EB850206EB8202043212F8043C002B45
:1044E00000F0D3816B1C99B201291D46ACF8043051
:1044F00002F11402F1D908220021AB4803AD0BF000
:104500009BFD2846142200210BF096FD0027CFE6E4
:10451000A64DA74A2968A748A24E0027277108235D
:10452000009701F053FDA44B2C685B88A98803EB2E
:10453000830306EB830206F8237053682B60022383
:1045400054601181AB80002887D1DFE6974B9B4AEE
:10455000196898480123237100230093082301F070
:1045600035FD00287FF479AFD0E68E4E3378022BEC
:1045700000F00782337D022B3FF45DAF884B03AD23
:10458000012200211A702846142259600F460BF0B0
:1045900053FD8DE6854A8748116800232371022464
:1045A0009480012201F046FD00287FF456AFADE66D
:1045B00063887C4E03EB830306EB8306F368002BD2
:1045C00000F0AB81794B7B48196802229A80052262
:1045D00022700023012201F02DFD0746002F3FF439
:1045E00095AE03AD2846142200210BF025FD41F6BF
:1045F0001D539F4208BF00275AE662686B485388E4
:10460000858801686B4801EB85010333002500951F
:104610009BB203259B00257001F0D8FC0746DDE71F
:10462000674BA26967491A604FF0000B1846C3F840
:1046300004B0FFF7E5FC002800F098810223A37581
:1046400004233946CDF800B0E2185A4801F0BEFC08
:1046500000283FF45BAE0AEB050306EB83030E274D
:104660001889E388554406EB8506C3F57F417489B4
:104670000333FD31C218214432817181B1E7514BBE
:104680004F4A1F8851684B484F4A00234FF0060C91
:1046900084F816C00093042301F098FC0028DAD1B6
:1046A00007EB870706EB8706012333742EE641F6F6
:1046B0001D57D6E702230022A37504230092394632
:1046C000E2183C4801F082FC00283FF41FAEC2E72C
:1046D000032A14BF062305230022A375391D009267
:1046E000042304F10802334801F070FC00283FF471
:1046F0000DAEB0E723692F48002B0CBF0123032325
:104700000022A37507F108010092042304F10C02B2
:1047100001F05CFC00283FF4F9AD9CE7E3882269D6
:1047200024484FF0010C07F10C01002784F816C053
:104730009B00009701F04AFC00283FF4E7AD8AE7B0
:1047400039460822184803AD0BF076FC3946284656
:1047500014220BF071FC0227AAE50A27142200217B
:1047600028460BF069FCA3E5104A616893884988E4
:1047700003330B44022193802170FFF7BBFC0746F3
:104780002CE70A4B0D4A19680A480023009363601E
:1047900007232370082301F019FC07461EE700BF1A
:1047A0007C2A0020A02A0020782B0020682B0020E3
:1047B000C00403008C230020842A0020C8040300C6
:1047C000602A0020742B0020BC04030062886F4E16
:1047D0009300134406EB83060620002371686C4A9D
:1047E0000093207008236B4801F0F0FB0746F5E6C4
:1047F00001232370A37A33B1644EF3680022A272BE
:10480000002B00F09380E37A002B33D05F4E336AA5
:104810000022E27273BB96F824305BB301236380FD
:10482000FFF768FC0746D9E66288584E5A4D930058
:10483000991806EB810128684F68B5F804C04860F4
:1048400002202F60A1F808C0A880C2E74F4E21893E
:10485000327D3378B2FA82F252090131B3FA83F32E
:104860005B09E272218100220121A372628022731E
:104870002170C0E703AD0021284614222170618019
:1048800061600F460BF0D8FB12E51368DCF80010EE
:1048900003F5805003F1080E002963D04B880333E1
:1048A00001EB8301884202D8CCF800701AE60B684D
:1048B0000133F9D04B88033301EB83039842F3D3E0
:1048C000B1F804A0CA4519D0B1F800B0BBF1000F8F
:1048D00014D0E388CCF800105345DDD100230093B9
:1048E0002E4A2C48042301F071FB002846D105EB29
:1048F000850506EB85060123337407E58342D3D291
:10490000196801311946CFD0B3F802A00AF1030AA1
:1049100003EB8A039842D3D2C6E70422227071685F
:104920001C48012201F086FB074657E6327C002A2C
:104930003FF469AF73E7013B062B3FF6B2AC01A22F
:1049400052F823F0614902007B470200FB45020058
:10495000B1450200A3420200CD4702008347020096
:10496000A37A48E771469DE70E27F7E603AD0146B7
:10497000142228460BF060FB0A2799E40E2703ADAA
:10498000ECE6002358E50F276BE600BFA02A0020C5
:10499000C00403008C230020682B0020BC0403000B
:1049A0004068FFF717BC00BF0C4B1A68042A12D0EE
:1049B00010B40B491C68012241F8240053E8001F81
:1049C00001EB020043E8000494F0000FF6D1002050
:1049D0005DF8044B70470C20704700BF702B00201F
:1049E0006C2A00202DE9F04FB24C8BB022780023C6
:1049F000CDE90533CDE90733099372B1AE4C04F12B
:104A0000100554F8043B05A803B19847A542F8D116
:104A1000002630460BB0BDE8F08F02F0FF07231DE3
:104A2000012253E8005F45EA020143E8001090F0DC
:104A3000000FF6D1002DEBD14FF010234FF0805234
:104A40005B6911695269DFF89082581C08BF02FB4C
:104A500001F3C8F810309949A3F5405340460022AD
:104A6000C8F80C3001F0AAFA06460028D1D11C2360
:104A70008C2293499348DFF864B2DFF864A200F017
:104A800009FED8F80C00029700F540530321324686
:104A900099468846002853D003688B498B424FD1F2
:104AA00043688A498B4200F0A78001318B4247D18D
:104AB000029B63B102EB820C0BEB8C0102270132EB
:104AC000DAF800300BF82C7092B24B600F818168DD
:104AD000CAF800004FF0020C0131AAF804C000F53A
:104AE000805300F1080728D04189033107EB81008A
:104AF0008342C0F025814FF6FF7E0192B888704551
:104B00000AD0388840B1724AB8681268904203D916
:104B10006F4A1060798803318C441FFA8CFCAAF824
:104B200004C07988033107EB8107BB4200F2FC80A7
:104B3000BCF1020F019A40F02A8104210D4319E0D3
:104B400000F58053014601E08B423AD00F680137EF
:104B500001F10401F8D002EB82010BEB81074FF069
:104B6000030C08F1FF3E01320BF821C01FFA8EF84A
:104B700092B27860994518468CD14346012B39D9B9
:104B8000EDB2022D36D0062D00F0E88095B304A9D1
:104B90004C4800F0B9FD1C22044600210BF04CFAF1
:104BA000002C00F0F2800123013D23700A2D00F259
:104BB0009B80DFE805F0B499B499B199B199AE97AB
:104BC000AE00DAF80010002900F0C080414F02EB7F
:104BD00082010BEB810C7A80022702F1010E0BF8A7
:104BE00021701FFA8EF2CCF80400ACF8087045F082
:104BF0000105BFE70B260CE79300039313440BEB6F
:104C0000830C00210BF823104FF00203ACF808309E
:104C1000CCF804008768013700F5805300F10801E3
:104C200042D0408900F1030E01EB8E0E734531D363
:104C300002270192E646B1F804C04FF6FF72944590
:104C400000F09B80B1F800C0BCF1000F00F095802F
:104C50001F4AD1F808C01268944505D91C4ABEF80D
:104C60000870C2F800C0488807440337BFB2AEF8E6
:104C700008704888033001EB80018B4252D90868E4
:104C800001304FD0488800F1030C01EB8C0C6345D8
:104C9000D1D2019A039911440BEB81014FF480604A
:104CA0004FF001070F740881013292B245F00205FE
:104CB00060E700BF7C2A00206C2A0020F404030077
:104CC000C82A0020542B0020DEC0ADDEFE011EF1FC
:104CD000982A0020842A00208C230020A02A00206B
:104CE000682B00200223237104A92A4800F038FD14
:104CF000294B012253E8000F00EB020143E80014A6
:104D000094F0000FF6D100287FF482AEFFF762FA2C
:104D10007FE603232371E7E701232371E4E7002300
:104D20002371E1E7019ABFE7396801313FF400AF31
:104D30007988033107EB81008342BFF4DFAE019A2B
:104D40004FF48061AAF804100821F7E60221AAF8BE
:104D500004100121CAF80000029148E70F4D01221A
:104D60000023227005F11006636055F8043B05A886
:104D700003B19847AE42F8D14AE64FF001028EF8EF
:104D800010204888BEF808706EE7082641E6082122
:104D9000D4E600BF542B0020642B00206C2A002096
:104DA00020B319B3F0B583B00C460DF106010546EA
:104DB000FFF726F9E0B1BDF806200F4B696802EB5A
:104DC000820203EB82030C33012253E8000F00EB55
:104DD000020643E8006797F0000FF6D121606B6888
:104DE00000200C336360AA7203B0F0BD0520704749
:104DF0000A2003B0F0BD00BFA02A0020E8B110B522
:104E000082B00DF106010446FFF7FAF890B1BDF843
:104E100006300C4A03EB830302EB8303DA6872B1BA
:104E2000A27A62B1DA680021013A0846DA60A1721A
:104E300002B010BD0A2002B010BD05207047062048
:104E400002B010BDA02A00201E4B1B78C3B1D0B108
:104E5000CB1C9BB240F2FD32934222D8F0B41A4AE6
:104E600016783EB9558914892C441C44A4B2B4F573
:104E7000806F19D3147D4CB107231846F0BC7047DE
:104E8000022318467047052318467047D58B948B2C
:104E90002C441C44A4B2B4F5806FEDD201263746F1
:104EA00003E00923184670473746BC003C4402EB38
:104EB00084022B4453810680418000231846F0BCB5
:104EC000704700BF7C2A0020A02A0020134B1A78CC
:104ED000D2B1034600B30288022A17D810B4104892
:104EE000598802EB820200EB82028C1C50898442BA
:104EF0000EDAC1F57F41FD310024014451811C606F
:104F000020465DF8044B704702207047042070472C
:104F100004205DF8044B7047052070477C2A002070
:104F2000A02A0020504B1B78002B32D0002934D00F
:104F30000A884FF6FF739A4229D04B883BB34B68DF
:104F40009B072CD12DE9F043B1F8088008F1030349
:104F50009BB240F2FD32934283B01CD8434A17788B
:104F60003FB9558914892C441C44A4B2B4F5806F10
:104F700017D3147D3CB9D58B948B2C441C44A4B21C
:104F8000B4F5806F6CD3072003B0BDE8F083042034
:104F90007047022070470920F6E70520704703207C
:104FA0007047BC464FEA8C09E14402EB89092B4467
:104FB0000C46064601A92E48A9F80A3000F0A4FBC9
:104FC0001C22054600210BF037F8002D3DD00223AE
:104FD0004FF00009AF822B7085F8169063682B6143
:104FE0000122244B53E8000F00EB020143E80017B5
:104FF00097F0000FF6D1E96023882B816388AB809E
:1050000001A9A5F80680A5F80A90194800F0A8FBA8
:1050100046B1C6F80490EA68174B32601B8986F8DF
:105020000A903381154B012253E8004F04EB020133
:1050300043E8001090F0000FF6D10CB10020A3E778
:105040002046FFF7C7F820469EE7B9F80A30C8F5B2
:105050007F4808F1FD089844A9F80A80082093E7E2
:105060000127BC469EE700BF7C2A0020A02A002022
:10507000542B0020982A0020842A0020642B002032
:10508000002A5DD03D4B1B78002B57D0002957D00C
:105090002DE9F0430C884FF6FF739C4283B053D048
:1050A0004B88002B50D04F6817F003074AD10C46AD
:1050B000064601A93248B2F80090B2F8028000F02A
:1050C00023FB1C22054639460AF0B6FF002D44D0CA
:1050D0000223AF75A5F814902B7063682B61012231
:1050E000284B53E8000F00EB020143E8001C9CF042
:1050F000000FF6D1E96023882B816388AB8001A97A
:10510000A5F806806F811E4800F02AFB36B1776053
:10511000EA681D4B32601B89B77233811B4B012239
:1051200053E8004F04EB020143E8001090F0000F39
:10513000F6D16CB1002003B0BDE8F08302207047C7
:10514000052070470320F6E7042003B0BDE8F08394
:105150002046FFF73FF82046EDE70D4B09EB8909A4
:1051600003EB8909C8F57F48B9F80A3008F1FD0852
:105170009844A9F80A800820DDE700BF7C2A0020B7
:10518000542B0020982A0020842A0020642B002021
:10519000A02A0020002836D04F4B1B78002B30D09F
:1051A000002930D00A884FF6FF739A422FD04B88DF
:1051B0006BB34B689B0728D12DE9F043B1F80890F9
:1051C00009F103039BB240F2FD32934283B020D831
:1051D000424A15783DB9578914893C441C44A4B20D
:1051E000B4F5806F17D3147D3CB9D78B948B3C44B6
:1051F0001C44A4B2B4F5806F6AD3072003B0BDE8A5
:10520000F083022070470520704703207047042078
:1052100070470920F2E7A846AC464FEA8C05654482
:1052200002EB85053B4406460C462D486B8101A9DF
:1052300000F06AFA1C22074600210AF0FDFE002F4A
:105240003CD003230025A7F814803B70BD7563682C
:105250003B614FF00108234B53E8001F01EB0802AC
:1052600043E8002090F0000FF6D1FA6023883B81DC
:105270006388BB800423A7F80690BB753368BB61C5
:1052800001A97D81164800F06BFA7560FA68164B2B
:1052900032601B893381B572144B53E8004F04EB25
:1052A000080243E8002191F0000FF6D10CB1284626
:1052B000A4E72046FEF78EFF20469FE76B89C9F5DD
:1052C0007F4909F1FD099944A5F80A90082095E75E
:1052D0004FF00108C446A0E77C2A0020A02A002045
:1052E000542B0020982A0020842A0020642B0020C0
:1052F0001B4B1B784BB34FF6FF73984223D070B50E
:1053000082B001A90446174800F0FEF91C220546A8
:1053100000210AF091FED5B1052301262B70EC8007
:1053200001A92E710F4800F01BFA0F4B53E8004FF4
:1053300004EB060243E8002191F0000FF6D14CB1D6
:10534000002002B070BD0420704702207047082082
:1053500002B070BD2046FEF73DFF204602B070BD92
:105360007C2A0020542B0020642B00201A4B1B7831
:105370001BB310B582B001A9184800F0C5F91C2272
:10538000044600210AF058FEE4B10623237001A967
:10539000124800F0E5F9124B1A7882B9114B01223C
:1053A00053E8004F04EB020143E8001090F0000FB7
:1053B000F6D154B1002002B010BD02207047012286
:1053C0001A73EBE7082002B010BD2046FEF702FF7B
:1053D000204602B010BD00BF7C2A0020542B0020C4
:1053E000842A0020642B00202DE9F043344C2478DB
:1053F000002C60D03AB333B39F88012F5ED8314C74
:1054000007EB870C013704EB8C0CBFB24FF6FF7E25
:105410004FF000089CF8004074B91C68DCF8045098
:1054200005F58056002C43D06588033504EB8504D0
:10543000B4420BD3C3F80080022F9F800CF1140CF0
:105440003CD00227E6E70520BDE8F083256801355A
:10545000F0D06588033504EB8505AE42EAD3B4F895
:105460000490F14515D0B4F80090B9F1000F10D0B8
:105470001C60A5888542D1D125888D42CED1A168F6
:1054800011601968104B51601B8913810020BDE821
:10549000F083AE42CED92C6801342C46CAD0B5F880
:1054A000029009F1030905EB8905AE42D7D2C1E7A5
:1054B00005F10804BCE70220BDE8F0830A20C3E739
:1054C0007C2A0020A02A0020842A0020334B1B784D
:1054D000002B5CD051B34AB32DE9F0419588012DE2
:1054E0005AD82F4F05EB850307EB830701353B782F
:1054F000ADB24FF6FF7C4FF0000E43B1022D958008
:1055000007F1140748D03B780225002BF6D1136829
:105510007C6804F58056002B3BD05C88033403EB99
:105520008403B34204D3C2F800E0E7E705207047E4
:105530001C680134F7D05C88033403EB8404A64272
:10554000F1D3B3F80480E04512D0B3F80080B8F18D
:10555000000F0DD013601C888442D9D19B680B606A
:105560001268104B4A601B890B810020BDE8F08156
:10557000A642D8D9236801332346D4D0B4F8028098
:1055800008F1030804EB8804A642DAD2CBE7022034
:10559000704704F10803C4E70A20E7E77C2A0020EB
:1055A000A02A0020842A0020334B1B78002B5CD0DB
:1055B00051B34AB32DE9F0419588012D5AD82F4FA8
:1055C00005EB850307EB830701353B78ADB24FF65A
:1055D000FF7C4FF0000E43B1022D958007F11407B8
:1055E00048D03B780225002BF6D113687C6804F57F
:1055F0008056002B3BD05C88033403EB8403B3421A
:1056000004D3C2F800E0E7E7052070471C680134C6
:10561000F7D05C88033403EB8404A642F1D3B3F8DB
:105620000480E04512D0B3F80080B8F1000F0DD02F
:1056300013609C888442D9D19B680B601268104B20
:105640004A601B890B810020BDE8F081A642D8D9B1
:10565000236801332346D4D0B4F8028008F103084C
:1056600004EB8804A642DAD2CBE70220704704F1AB
:105670000803C4E70A20E7E77C2A0020A02A0020CC
:10568000842A002020B119B103680B600020704704
:105690000520704799B110B4B2FBF3F403FB142456
:1056A000A4B244B9C0E9001484608281C381204659
:1056B0005DF8044B704709205DF8044B70470E20DD
:1056C000704700BF82B050E8022FC188B2EB324F62
:1056D0004FF0000317BF92B241EA014142EA014193
:1056E00004E04268B2EB324F08BF012340E80212E7
:1056F000002AE8D18DF807309DF80730002B0CBF49
:105700001120002002B0704730B482B050E8013F51
:105710009DB2C48925448489A54228BF2D1B0489D4
:10572000A54202BFBFF32F8F002207E0C5EA0305A1
:1057300040E80154002CE9D14FF001028DF803201C
:105740000193019B9DF803200B602AB10B88006830
:10575000184402B030BC704702F0FF031846F8E767
:105760000A884B889A4201D00020704750E8012FE8
:10577000C2EA024240E80123002BF7D10120704722
:1057800030B482B050E8023F1FFAA3F5C488A542A6
:1057900002BFBFF32F8F00220DE0C4892544848906
:1057A000A54228BF2D1BC3EA054540E80254002C42
:1057B000E8D14FF001028DF803200193019B9DF881
:1057C00003200B602AB14B880068184402B030BC3B
:1057D000704702F0FF031846F8E700BF0A884B88BD
:1057E0009A4201D00020704750E8022FC2EA2242BC
:1057F00040E80223002BF7D101207047B8B130B444
:10580000D0E90112521A0468D2B2531E2160DBB2F1
:1058100042B101680A685C1E551C0D601370E3B24A
:10582000FF2BF6D103680020187130BC70470E20A2
:10583000704700BFF0B583B002AB002503F8015DEF
:1058400004461846FEF79EFBD4E900311A688A42E6
:1058500010D9511E19602168A3680F6812F8015C05
:105860000A79268AE068DB1BDBB29A4206FB050553
:1058700038BF0B719DF80700FEF7AAFB284603B05E
:10588000F0BD00BF30B583B002AB002203F8012D9C
:10589000054618460C46FEF775FB2A681368591C26
:1058A0001160E9682A8A641AB4FBF2F41C709DF84E
:1058B0000700FEF78DFB03B030BD00BF826842B128
:1058C00010B5044643690168006998470023A36046
:1058D00010BD70470EB400B582B0039929B102AA79
:1058E00004AB42F8043D00F08BF802B05DF804EB25
:1058F00003B070472DE9F84F884690451746054696
:105900001E46DDE90AB175D343464FF00109B3FBEA
:10591000F7F39F4209F10109F9D9B14538BFB14602
:1059200011F0010AAA6802D1BBF1000F43D1012492
:1059300002E0013E07FB04F4012EFAD8B8FBF4F1B3
:105940008F42F7D92D4E05E0B4FBF7F4A4B1B8FBB4
:10595000F4F1AA68705C531CAB602B689854D5E9CD
:1059600001329A4204FB1188EED32846FFF7A6FFC6
:10597000B4FBF7F4002CEAD1BAF1000F15D0BBF15B
:10598000000F12D0CB4510D92024AB682A68591CCF
:10599000A960D454D5E901329A420BF1FF3B06D2FB
:1059A000BBF1000F01D0CB45EFD1BDE8F88F284601
:1059B000FFF784FFF4E78B0717D42024CB45B6D933
:1059C0002B68511CA9609C54D5E901329A420BF115
:1059D000FF3B05D2BBF1000FA9D0CB45F0D1A6E724
:1059E0002846FFF76BFFAA68F4E7002E0CBF3024AF
:1059F0002024E3E74FF001098FE700BFD80403003C
:105A0000002900F0F4812DE9F04F054685B092465B
:105A10000C460B78DFF8A0B501E0237893B1013490
:105A200083B1252B15D0AA682968501CA8608B5417
:105A3000D5E901329A42F0D32846FFF73FFF237899
:105A4000002BECD12B7B002B40F0148105B0BDE87E
:105A5000F08F2146002711F8012B2D2A00F0E1805C
:105A6000302A00F0E2802B2A00F0D2802A2A00F0AF
:105A7000E080A2F13006F3B2092B03D9B8E1A3F11B
:105A800030060146084606EB860310F8012BA2F10A
:105A90003004092C02EB4303F1D92E2A00F0D58003
:105AA0000023013101E011F8012B02F0FB0068280E
:105AB0000C46F8D0253A532AAFD801A151F822F06C
:105AC000815C02001B5A02001B5A02001B5A020092
:105AD0001B5A02001B5A02001B5A02001B5A0200EA
:105AE0001B5A02001B5A02001B5A02001B5A0200DA
:105AF0001B5A02001B5A02001B5A02001B5A0200CA
:105B00001B5A02001B5A02001B5A02001B5A0200B9
:105B10001B5A02001B5A02001B5A02001B5A0200A9
:105B20001B5A02001B5A02001B5A02001B5A020099
:105B30001B5A02001B5A02001B5A02001B5A020089
:105B40001B5A02001B5A02001B5A02001B5A020079
:105B50001B5A02001B5A02001B5A02001B5A020069
:105B60001B5A02001B5A02001B5A02001B5A020059
:105B70001B5A02001B5A02001B5A02001B5A020049
:105B80001B5A02001B5A02001B5A02009B5C0200B7
:105B90001B5A02001B5A02001B5A02001B5A020029
:105BA0001B5A02001B5A02001B5A02001B5A020019
:105BB0001B5A02001B5A0200B55C0200D75C0200AF
:105BC0001B5A02001B5A02001B5A02001B5A0200F9
:105BD000D75C02001B5A02001B5A02001B5A02002B
:105BE0001B5A02001B5A02001B5A0200275D0200CA
:105BF0001B5A02001B5A02009B5D02001B5A020046
:105C0000D55D02001B5A02001B5A02009B5C020079
:105C100047F004070C46214611F8012B2D2A7FF48A
:105C20001FAF47F001070C46F5E747F002070C46A7
:105C3000F1E7DAF800301A1DCAF8002062781E6811
:105C40002E2A04F102007FF42BAF4A78A2F1300330
:105C5000092B00F25081002303EB830302EB430383
:105C600010F8012FA2F130010929A3F13003F3D973
:105C7000014616E7284605B0BDE8F04FFFF71EBE07
:105C8000AB682A68591CA9604FF02501D154D5E9A9
:105C900001329A42FFF4C1AECEE6DAF80020111DBF
:105CA000CAF8001011682846CDE900671022FFF7F6
:105CB00021FEB2E6DAF80020131DCAF80030AB6806
:105CC00029681278581CA860CA54D5E901329A4252
:105CD000FFF4A3AEB0E6DAF80020111DCAF80010F8
:105CE000D2F8008088EAE872A2EBE872092A4FF045
:105CF000010107DDAF48A0FB0202D208092A01F129
:105D00000101F7DC994238BF1946894607F00202C3
:105D1000002E71D12AB1002B00F04781FA0700F163
:105D20008D8000268AE0DAF80020131DCAF80030C2
:105D3000AB6829681768581C3022A860CA54D5E996
:105D40000123934280F028812A68581C7821A8609A
:105D5000D154D5E90123934280F019810F2F03D943
:105D60003A4612090F2AFCD84FF0805603E0360954
:105D70003FF453AEAB682968B7FBF6F2581CA86035
:105D80001BF80200C854D5E90131994206FB12778D
:105D9000EDD32846FFF792FDE9E7DAF800301A1D47
:105DA000CAF80020D3F80080FB077ED54746A7EB52
:105DB000080917F8013B002B5DD0AA682968501C20
:105DC000A8608B54D5E901329A42F0D32846FFF7F8
:105DD00075FDECE7DAF80020111DCAF80010116813
:105DE0002846CDE900670A22FFF784FD15E67047D3
:105DF00008460026214650E6B8F1000F01DB78077F
:105E000000D5013E02B1CBB1F90717D4002E88D0DE
:105E1000B14513D220220393A9682B68481CA860BF
:105E20005A54D5E90131994206F1FF365DD2002E70
:105E300000F0BD80B145EFD1039B4E46B8F1000F95
:105E4000C0F292807A070AD5A9684A1CAA602A681B
:105E50002B205054D5E90121914280F0928007F027
:105E60000302022A5FD0CDE9006741460A22284694
:105E7000FFF740FDD1E54E457FF6CFAD202705E089
:105E80004E453FF4CAAD002E3FF4C7ADAB682A685B
:105E9000591CA960D754D5E901329A4206F1FF3660
:105EA000EED32846FFF70AFDEAE7B8F1000F24D049
:105EB00040460AF0C9F80746BE4220D9FEB14FF06D
:105EC000200902E0BE421AD0CEB1AB682A68591C44
:105ED000A96002F80390D5E901329A4206F1FF3633
:105EE000F0D32846FFF7EAFCECE728460292FFF7DA
:105EF000E5FC029A9BE70146D2E54746DCE708F15C
:105F0000FF3818F8013F002B3FF487ADAA682968D5
:105F1000501CA8608B54D5E901329A42F1D328462F
:105F2000FFF7CCFCEDE7002B9DD1002E3BD0B14517
:105F300099D2029323464C469946AA682B68501C76
:105F40004FF03001A8609954D5E901329A4206F128
:105F5000FF3605D22EB3B442EFD1029B4C4682E706
:105F60002846FFF7ABFCF5E7A9684A1CAA602A6837
:105F70002D205054D5E901219142C8F10008FFF4C9
:105F80006EAF28460293FFF799FC029B67E728460D
:105F9000FFF794FCAB68E1E62846FFF78FFCAB689F
:105FA000D2E6029B4C4600265DE71E4646E7039B71
:105FB000B7E600BFCDCCCCCCD804030020B119B1DA
:105FC00001600B68114618470E20704750B32DE949
:105FD000F0414AB3D0F800E0BEF1000F27D01D46D3
:105FE00073B14768D7F80480B3FBF8F708FB17379D
:105FF00037B942EA0104A40705D01020BDE8F081BA
:106000000920BDE8F081C468A142F6D301F1FF3C4C
:1060100004696544A542F0D8DEF80C40A446BDE80A
:10602000F04160470E2070470E20BDE8F081082047
:10603000BDE8F081E0B1F0B50668DEB1A2B1476815
:10604000D7F800E00EF1FF370F420FD1C768B94211
:106050000CD34D1E046902FB0E55A54206D83469C7
:10606000A446BDE8F04060470920F0BD1020F0BD17
:106070000E2070470820F0BD18B103680BB1DB6932
:10608000184770B50D4C0E4D0E4B2D1BA3FB05355F
:106090002D0910D005EB850504EB850501E0AC4228
:1060A00009D0236820461434002BF8D0DB699847C8
:1060B0000028F4D070BD002070BD00BF8C230020EC
:1060C000A0230020CDCCCCCC29DF704728DF70473F
:1060D0000846704700207047024B187A003018BFFE
:1060E000012070471C2C0020034B187A0122B0FAC3
:1060F00080F05A74400970471C2C002008B51046E7
:106100001A4609F08EFF002008BD00BF08B5142212
:106110000021044809F090FF0348FFF7D3FA00205C
:1061200008BD00BF1C2C00200C2C002038B50C4CE6
:10613000012354E8002F42EA030144E8001595F0DA
:10614000000FF6D152B9074B436009F0AFFD1C2395
:1061500020748C2204490548FFF79CFA002038BDC2
:106160001C2C0020E8040300802B00200C2C0020B5
:1061700030B5674C237A012B87B037D0022B0ED174
:10618000022800F08280032830D1E3680133082B15
:1061900007D8E360637C002B2DD009F01FFD07B00A
:1061A00030BD5C4B00221B68E26022720D2519682D
:1061B0008A68BAB1002201A80192C0E902220295C0
:1061C0009A6805921A79002A00F09980012A07D16D
:1061D00002228DF80420DA68120303925B690493AB
:1061E0008B6898474C494D48FFF7F8FA637C002BC1
:1061F000D3D1237A9BB1474B1B68022222721A79B2
:10620000CAB1012A2AD1D3E903021044FFF75EFF85
:1062100000284CD0112821D101232372BFE73E4929
:106220003E48FFF7ADFA3B4A034610600028E4D130
:10623000636007B030BDD3E90525521BB2F5805F1E
:10624000D3E9031028BF4FF480529208012A38BFC7
:10625000012229442844FFF737FFD9E719688A68E3
:106260007AB1002201A80192C0E902220325029519
:106270009A6805921A79002A39D0012A20D08B68B1
:106280009847002323726360D3E7224B00221B68E8
:10629000E2601A79EAB1012AA8D1D3E904210132D6
:1062A0008A421A617FF476AF002525727FE7237C4E
:1062B000002B7FF474AF01460220FFF759FF6EE711
:1062C00002228DF80420DA68120303925B690493BA
:1062D000D5E7D3E90512881AB0F5805F94BF12188C
:1062E00002F5805291429A617FF454AFDCE70122BB
:1062F0008DF804201A6903925B690493BFE70122B9
:106300008DF804201A6903925B69049368E700BF63
:106310001C2C0020342C0020302C00200C2C0020C1
:1063200030B5384C237A87B0002B35D0364B02225B
:106330001B6822721A79002A3CD0012A0CD1D3E9B9
:1063400003021044FFF7C2FE002847D0112803D1F2
:106350000123237207B030BD19688A68BAB10022E0
:106360000392019204929A680592032202921A798A
:10637000002A3BD0012A07D1DA685B690493130332
:10638000022203938DF804208B6801A8984700230C
:106390002372636007B030BD1C491D48FFF7F0F958
:1063A000194A034610600028F3D0022222721A799B
:1063B000002AC2D1D3E90525521BB2F5805F28BF60
:1063C0004FF48052D3E903109208012A38BF01220A
:1063D00029442844FFF778FE0028B7D1237C002BFE
:1063E000D8D101460220FFF7C3FED3E7D3E9042347
:1063F000CDE9032301208DF804008B6801A898479C
:10640000C5E700BF1C2C0020342C0020302C0020BD
:106410000C2C00202DE9F04383B081460E461B482A
:10642000694617469846FFF76FF950B304461C2299
:1064300000210125360B09F0FFFDE660C4F800904D
:10644000C4F808806761694625711048FFF788F92C
:106450000F4A131D53E8001F284643E8000494F038
:10646000000FF7D10191019838B9547C34B9FFF786
:1064700057FF204603B0BDE8F083002003B0BDE81D
:10648000F083042003B0BDE8F08300BF0C2C002093
:106490001C2C00202DE9F04383B0814688461B4820
:1064A000694617461E46FFF72FF958B304461C22CB
:1064B00000210D4609F0C0FD0A9BA3606946C4F89F
:1064C0000090C4E90378666125711048FFF748F928
:1064D0000F4901220B1D53E8000F144643E8004604
:1064E00096F0000FF7D10190019838B94C7C34B97F
:1064F000FFF716FF204603B0BDE8F083284603B03F
:10650000BDE8F083042003B0BDE8F0830C2C00202C
:106510001C2C002000F0FD03012B00D0704730B58B
:106520003A4CA0F10100B0FA80F0237A4009002231
:1065300087B020746274002B35D0354B02221B6863
:1065400022721A79002A3CD0012A0CD1D3E9030225
:106550001044FFF7BBFD002847D0112803D10123C9
:10656000237207B030BD19688A68BAB1002203925D
:10657000019204929A680592032202921A79002AE3
:106580003BD0012A07D1DA685B6904931303022226
:1065900003938DF804208B6801A898470023237289
:1065A000636007B030BD1B491B48FFF7E9F8184A84
:1065B000034610600028F3D0022222721A79002AC2
:1065C000C2D1D3E90525521BB2F5805F28BF4FF435
:1065D0008052D3E903109208012A38BF01222944CE
:1065E0002844FFF771FD0028B7D1237C002BD8D1B8
:1065F00001460220FFF7BCFDD3E7D3E904230120C5
:106600008DF80400CDE90323C5E700BF1C2C002052
:10661000342C0020302C00200C2C0020FFF7EEB88A
:106620002DE9F041058ACE1C043D2E440746B6FBF9
:10663000F5F6FFF7FFF878B3F6B24FF48073013E3A
:106640000446C5800760838027D08046002509E086
:106650006379AE4203F101036371C8F8000007607B
:1066600080461AD03846FFF7E5F801350028EFD10B
:106670006679721E14D02346013082421B68FBD11A
:106680001F684EB1002523682146013538461C4657
:10669000FFF7F8F8AE42F6D100242046BDE8F081BD
:1066A0002768EFE710B40430012350E8002F02EB15
:1066B000030140E8001494F0000FF6D15DF8044B9C
:1066C000704700BF0146021DF8B5012052E8004F97
:1066D000A4EB000342E8003595F0000FF6D113F06B
:1066E000FF0300D0F8BD4E79701E11D00A46013369
:1066F00098421268FBD11768002EF3D000240D6871
:1067000001343846FFF7BEF8A6422946F7D1F8BD56
:106710000F68F3E72DE9F8430446181DE688B0FB3F
:10672000F6F30F46904606FB130013B1013B2468B5
:10673000FCD1351A454528BF4546B8F1000F15D0A4
:106740004FF000090430A8EB050820442A4607EB67
:10675000090109F066FC4645A944246835464FF016
:10676000000028BF4546B8F1000FEBD1BDE8F88323
:106770002DE9F843C688043304460F46B3FBF6F010
:10678000904606FB103110B101382468FCD1751A0F
:10679000454528BF4546B8F1000F15D04FF0000918
:1067A00004312144A8EB05082A4607EB090009F04B
:1067B00038FC4645A944246835464FF0000128BFFF
:1067C0004546B8F1000FEBD1BDE8F88301600B68D6
:1067D00043604A68934204BF00234360704700BF90
:1067E000436843B1026891680B4443605268934226
:1067F00004BF00234360704730B4184DA5F1F00288
:10680000AB1ADB1003EBD3735B1002EBC30152F83E
:106810003330984228BF0C4605D311E052F833308C
:1068200098420CD221468B1ADB1003EBD3735B101A
:106830008A4202EBC304F1D3094830BC70470D46CD
:10684000984204D904F10802AA42D9D3F4E7606857
:10685000034B002808BF1846EFE700BF24060300DB
:106860002005030010B40023012401E0202B0AD0EE
:1068700004FA03F2024299B203F10103F6D008468A
:106880005DF8044B70474FF6FF7108465DF8044B06
:10689000704700BFA0B199B130B40238002402E0C3
:1068A0000134202C0AD030F8025F9542F8D1012241
:1068B00002FA04F40A6823B122430A6030BC70472C
:1068C000704722EA04020A6030BC704770B49DF839
:1068D0000C60D0B1C9B1C2B10238002402E0013469
:1068E000202C12D030F8025F9D42F8D1012301EB39
:1068F000820203FA04F4E043043A04393EB951F841
:10690000043F034091420B60F9D170BC704751F8CD
:10691000043F234391420B60F7D051F8043F2343D7
:1069200091420B60F3D1F0E7A0B110B4023800231C
:1069300002E00133202B0ED030F8024F9442F8D100
:10694000012202FA03F30B4214BF104600205DF847
:10695000044B7047704700205DF8044B704700BF40
:10696000F0B491B100252B46012606FA03F4144237
:1069700005D000EB450431F81370A78001350133D1
:10698000202BF2D10560F0BC70470D460560F0BCCD
:10699000704700BF0A7B10B4D1E90043002A0ABF48
:1069A000234600220122027103605DF8044B704708
:1069B00010B4034600791C688A6840B14868011B1E
:1069C00091420ED9A01818605DF8044B7047086812
:1069D000211A91420BD8012218601A715DF8044BFC
:1069E0007047002218601A715DF8044B7047A01AB6
:1069F00018605DF8044B7047074B1B5C1F2B8ABF68
:106A0000064A4FF0A04203F01F03D2F80405D84015
:106A1000C04300F00100704730090300000300503C
:106A2000074B1B5C1F2B86BF03F01F0305494FF06C
:106A3000A041012202FA03F3C1F80C35704700BFF0
:106A40003009030000030050074B1B5C1F2B86BF5F
:106A500003F01F0305494FF0A041012202FA03F39E
:106A6000C1F80835704700BF30090300000300502B
:106A70004FF0A04310B44FF480404FF400544FF453
:106A800000414FF48032C3F80845C3F80805C3F845
:106A90000815C3F808255DF8044B70474FF0A04374
:106AA00010B44FF480404FF400544FF400414FF4C1
:106AB0008032C3F80C45C3F80C05C3F80C15C3F8B5
:106AC0000C255DF8044B70470A4B195C1F298ABFDF
:106AD00009484FF0A04001F01F01D0F80435012211
:106AE0008A4022EA03011340C0F80815C0F80C35AB
:106AF000704700BF300903000003005030B44FF06E
:106B0000A04303224FF400554FF480444FF400405B
:106B10004FF48031C3F83427C3F83827C3F83C2733
:106B2000C3F84027C3F80855C3F80845C3F808055B
:106B3000C3F8081530BC7047074B1B5C1F2B8ABF7E
:106B4000064A4FF0A04203F01F03D2F81005D840C8
:106B5000C04300F0010070472C09030000030050FF
:106B60000B2809D00C2809D0182809D019280CBFE7
:106B700003204FF0FF30704700207047012070471E
:106B800002207047014B185C704700BF2C090300BE
:106B900060B910B5064CA3683BB1D3E900230020CF
:106BA000A2609847A368002BF7D110BD704700BFC3
:106BB000382C002010B5012882B029D022D3032818
:106BC0001ED10721002000F093F802A80023264CD4
:106BD00000F8013DFDF7D6F9E368013BE360E368A7
:106BE00053B9224B01221A604FF08042D2F8183478
:106BF00013F48033FAD1A3709DF80700FDF7E8F98C
:106C000002B010BD1A4B0122C3F8802002B010BDA3
:106C100002A80023144C00F8013DFDF7B3F92378D6
:106C200053B1E3689DF8070001330122E360A270CD
:106C3000FDF7CEF902B010BD0D4A6360A360236179
:106C4000E360106810F001000AD009F02FF820B9B5
:106C50004FF080430122C3F8182501232370E0E799
:106C6000072100F045F8F0E7382C00200C00004028
:106C700000E100E010B51B4B1A6882B0AAB10022F7
:106C80001A601B6800934FF080430122164C009954
:106C9000C3F80823A36862703BB1D3E90023002046
:106CA000A2609847A368002BF7D1104B1A68B2B1C5
:106CB00000221A601B6801934FF0804302220A4CA5
:106CC0000199C3F8082323690122A2703BB1D3E9DB
:106CD00000230120226198472369002BF7D102B0DD
:106CE00010BD00BF00010040382C0020040100400E
:106CF0004901002810B4C9B2C3B215DB00F16042EB
:106D000002F5614282F800134009800000F1604002
:106D100000F5614003F01F0201239340C0F8803169
:106D200003605DF8044B7047024A03F00F042244ED
:106D30001176E9E7FCEC00E030B51B4C94F86450A8
:106D400083B075BB4FF0FF3307210620C4E9003341
:106D5000C4E90233C4E90433C4E90633C4E908339F
:106D6000C4E90A33C4E90C33C4E90E33C4E910336F
:106D7000C4E91233C4E91433C4E916332366FFF7B8
:106D8000B7FF0A4B0A4A1D601B68019301984FF038
:106D900000430121284684F86410C2F8043303B08C
:106DA00030BD082003B030BD4C2C00207C61004079
:106DB00000600040034B93F86400003018BF0120CE
:106DC000704700BF4C2C0020F0B46D4B1C1894F998
:106DD0003050002D68DACE78002E5FD11D6A013563
:106DE00000F0BD8009240C2553F8247001375FD0D2
:106DF00004F1010C53F82C70013700F0BA8004F153
:106E0000020CAC4547D253F82C70013700F0B1802A
:106E100004F1030CAC453ED253F82C70013700F05E
:106E2000A88004F1040CAC4535D253F82C7001371E
:106E300000F09F8004F1050CAC452CD253F82C7067
:106E4000013700F0968004F1060CAC4523D253F8CC
:106E50002C70013700F08D8004F1070CAC451AD27C
:106E600053F82C70013700F0848004F1080CAC4515
:106E700011D253F82C7001377BD004F1090CAC45CA
:106E800009D253F82C70013773D00A34AC4202D2C5
:106E9000DC6A01340BD00420F0BC70471D6801355A
:106EA00069D0012408259FE70820F0BC70470B2417
:106EB0001F1865B243F8242087F83050002E54D0B4
:106EC0008A78EAB11F2887BF2E4A00F01F040446C3
:106ED0004FF0A04202EB8402D2F8004724F00204F3
:106EE000C2F80047CA780978EAB9083D2B44104631
:106EF00093F8602042EA811183F86010F0BC70477B
:106F00001F284C7886BF1F4E00F01F02024602F574
:106F1000E07298BF4FF0A046A40046F82240CA781D
:106F20000978002AE1D0AB0003F1804303F5C043A8
:106F30000002D3F8102522F44F3222F44072C3F835
:106F40001025090400F47C50D3F8102501F44031D9
:106F500001431143C3F810150020F0BC7047082608
:106F600084F830601A62354634461C4484F8580070
:106F7000A6E764469CE700251A6084F830509FE736
:106F80004C2C00200003005070B43A4D2E1883B0F2
:106F900096F93030072B20DD2B4493F858309B09AD
:106FA000032B45D0012B14BF4FF440314FF4003177
:106FB0001F284DD900F01F002F4B03EB8000D0F8A5
:106FC000002722F44032C0F80027D0F800370B43E6
:106FD000C0F8003703B070BC7047DAB2072AF9D89E
:106FE000980000F1804000F5C04003F14002D0F865
:106FF0001045920092B244F0010402F18042C0F8C0
:10700000104502F5C04200200190019C106000294B
:10701000E0D096F9302055F82220002ADAD001225B
:10702000164902FA03F3C1F8043303B070BC704789
:107030001F2810D9104BD3F8103500F01F00C340A3
:1070400013F0010F0CBF4FF400314FF44031B3E7A0
:107050004FF0A043B1E74FF0A0421346D2F81025FD
:10706000C24012F0010F14BF4FF440314FF4003111
:10707000A3E700BF4C2C002000030050006000403C
:107080001F288ABF054B4FF0A04300F01F00D3F824
:10709000103523FA00F000F00100704700030050A3
:1070A0002DE9F047002388B0CDE90233CE4A1668B7
:1070B000012E00F03B821E46CC4B1A68012A00F0DC
:1070C0002782CB4B1A68012A00F01482C94B1A6838
:1070D000012A00F00182C84B1A68012A00F0EE81F3
:1070E000C64B1A68012A00F0DB81C54B1A68012AD9
:1070F00000F0C881C34B1A68012A00F0B581C24B69
:107100001A68012A0FD100221A601B6801934FF000
:10711000A042019BD2F81025BC4B0292D3F8103547
:10712000039346F0004616F0FF0F1AD0B84F002424
:107130000125A30003F180432E4203F5C0434FEA2B
:1071400045050BD0D3F8100557F82420D3F81015B7
:10715000C0F30520C1F3014102B190470134082C6E
:10716000E7D1002E02DB08B0BDE8F087A84CA74F9E
:107170004FF0FF33CDE9063394F960300DF110087C
:1071800000225D1CC8F8042004924FF0010600F0B4
:10719000F4805FFA83FC2CF0C00008AB4FEAD00902
:1071A00003EB090E0CF007031EF8082C06FA03F394
:1071B00012EA030521D022184FEA9C1192F93020DF
:1071C00054F82220002A00F02981032900F02881A8
:1071D0001F2800F2F98005464FF0A04C0CEB850CFF
:1071E0001EF8185CDCF800E71D40CEF3014E40F0BD
:1071F000DF80BEF1030F00F0BF8194F96130581CAD
:1072000032D0DBB223F0C00008AA4FEAD00E02EB66
:107210000E0C03F007011CF8082C06FA01F912EA1B
:10722000090F21D02218990992F9302054F8222010
:10723000002A00F0FB80032900F0FB801F2800F2E9
:10724000E98003464FF0A04E0EEB83031CF818ECC8
:10725000D3F800C71EEA090FCCF3014C40F0B88008
:10726000BCF1030F00F0AE8194F96230591C30D0AC
:10727000DBB223F0C00008AA4FEAD00E02EB0E0CDE
:1072800003F007011CF8082C06FA01F912EA090FAD
:107290001FD02218990992F9302054F82220002A90
:1072A00000F0D880032900F0D8801F287CD803463E
:1072B0004FF0A04E0EEB83031CF818ECD3F800C778
:1072C0001EEA090FCCF3014C64D1BCF1030F00F0AE
:1072D000658194F963305A1C34D0DBB223F0C000CE
:1072E00008AA4FEAD00E02EB0E0C03F007021CF8BE
:1072F000081C06FA02F2114224D004EB0009990995
:1073000099F9309054F82990B9F1000F00F0988065
:10731000032900F098801F288BBFBE464FF0A04E77
:1073200003F01F0303460EEB83031CF818ECD3F89D
:1073300000C71EEA020FCCF3014C20D1BCF1030FB1
:1073400000F00181002D3FF40EAF4FF0A0430299F1
:10735000D3F81035D7F81025994203D103999142FB
:107360003FF401AFDDE90401CDE9023294F9603068
:107370005D1CCDE906017FF40CAF00253DE7BCF1B3
:10738000020FDFD1032900F03481B9F1000F40F082
:10739000F180D7E7BCF1020F9BD1032900F02681D1
:1073A000002A96D0904794E703F01F03BE4681E77A
:1073B000BEF1020FE1D1032900F021810025002A4E
:1073C0003FF41BAF904718E70CF01F05BC4605E7DC
:1073D000BCF1020F7FF448AF032900F00D81002AB1
:1073E0003FF442AF90473FE7006100400461004036
:1073F000086100400C6100401061004014610040D1
:10740000186100401C6100407C6100400003005096
:107410004C2C002003F01F03BE4615E70329ACD116
:1074200018F809501D4308F80950D1E603297FF4E4
:107430001BAF18F80EA04AEA090A08F80EA0FDE6EC
:1074400003297FF47FAF18F80EA04AEA020A08F871
:107450000EA060E703297FF43CAF18F80EA04AEABB
:10746000090A08F80EA020E7664AD2F80423170696
:107470007FF545AE00221A601B680093009B46F022
:1074800080063CE65F4AD2F8042352067FF532AE0E
:1074900000221A601B680093009B46F0400629E614
:1074A000584AD2F8042391067FF51FAE00221A60D5
:1074B0001B680093009B46F0200616E6514AD2F85E
:1074C0000423D0067FF50CAE00221A601B680093DF
:1074D000009B46F0100603E64A4AD2F8042314073C
:1074E0007FF5F9AD00221A601B680093009B46F0FF
:1074F0000806F0E5434AD2F8042355077FF5E6ADC8
:1075000000221A601B680093009B46F00406DDE52C
:107510003C4AD2F8042397077FF5D3AD00221A60C6
:107520001B680093009B46F00206CAE53549D1F876
:10753000041311F0010104D0136013680093009B41
:10754000BAE50E46B8E503297FF41FAF4FF4003CBF
:10755000D3F8002722F44032C3F80027D3F80027DD
:10756000013542EA0C02EDB2C3F80027B9F1000F71
:107570003FF4EBAEC847E5E603297FF420AF4FF4B4
:107580000035DCF8003723F44033CCF80037DCF862
:1075900000372B43CCF80037012510E703297FF48F
:1075A000FFAE4FF4003ED3F800C72CF4403CC3F8C4
:1075B00000C7D3F800C701354EEA0C0CEDB2C3F892
:1075C00000C7EDE603297FF40AAF4FF4003ED3F87D
:1075D00000C72CF4403CC3F800C7D3F800C70135FE
:1075E0004EEA0C0CEDB2C3F800C7F8E64FF4403E8B
:1075F000D9E74FF4403CABE74FF4403EE7E74FF4A8
:107600004035BEE700600040F0B50679934C760146
:10761000A31987B0DD7E002D40F0BE804D7F1D7721
:107620000B685F1C18D01F2B8ABF8D4F4FF0A047EF
:1076300003F01F03012505FA03F3C7F808350B68AB
:107640001F2B86BF03F01F03854F4FF0A04703F5A4
:10765000E073032547F823504B685D1C0BD01F2BAC
:1076600086BF03F01F037E4F4FF0A04703F5E07382
:10767000002547F82350037905688F6904EB43130D
:107680001B7FC5F82475002B48D00F7D4B7D056806
:107690003B43C5F86C35D1E900750368C3F80C7538
:1076A000C3F814550B7D012B00F0A380A3190546E8
:1076B0005A600B69A351EAB10379097F026804EBB0
:1076C00043131B7F002B6ED1C2F81C31D2F81C0172
:1076D0002A6800900098C2F84431D2F844212B68FF
:1076E0000192604A0198C3F80423286840F30730E8
:1076F000FFF7FEFA2B792A6804EB43131B7F002B5C
:107700004DD00823C2F80035344400200123E3762D
:10771000E0752076A075A07607B0F0BD0F7D4B7D9B
:1077200005683B43C5F86C35D1E900570368C3F8D9
:107730001475C3F80C550B7D012BB7D18B685F1CFA
:107740000BD01F2B86BF03F01F03454F4FF0A04700
:1077500003F5E073002547F82350CB685D1C76D015
:107760001F2B8ABF3E4F4FF0A04703F01F03012598
:1077700005FA03F3C7F80835CB681F2B88BF03F061
:107780001F0303F5E0738CBF354F4FF0A04703256F
:1077900047F82350CB685AE0082007B0F0BD042317
:1077A000C2F80035B0E70023C2F81031D2F810015A
:1077B0002A6802900298C2F82031D2F820012A6883
:1077C00003900398C2F82431D2F824012A68049067
:1077D0000498C2F84431D2F844212B680592224A19
:1077E0000598C3F80423286840F30730FFF780FAB0
:1077F00080E78B685F1C0BD01F2B86BF03F01F0335
:10780000174F4FF0A04703F5E073002547F82350CA
:10781000CB685D1C1BD01F2B4FF001058ABF104F9A
:107820004FF0A04703F01F0305FA03F3C7F808352C
:10783000CB681F2B88BF03F01F0303F5E0738CBFD9
:10784000074D4FF0A045032745F82370CB68056826
:107850008F68C5F80835C5F8107527E7B42C0020E7
:10786000000300508000020010030200F0B404790D
:10787000474B016864011A19127F002A00F08380C7
:107880000022C1F800251A19017955680268B5B1BE
:1078900003EB4111097F002978D13E49C2F8081352
:1078A00002683D4E120B51B24909203102F01F020D
:1078B000012505FA02F246F8212001790268D2F882
:1078C0000C75D2F8146503EB41114FF0FF3C097FB2
:1078D00000294AD0D2F80815D2F81055C2F80CC5C4
:1078E000C2F814C50268C2F808C5C2F810C57A1CEF
:1078F0000BD01F2F86BF07F01F07284A4FF0A0426A
:1079000007F5E077022042F82700771C0BD01F2EE6
:1079100086BF06F01F06214A4FF0A04206F5E0762A
:10792000022042F82600681C0BD01F2D86BF05F0F0
:107930001F051A4A4FF0A04205F5E075022042F8F3
:1079400025004A1C0BD01F2986BF01F01F011348D8
:107950004FF0A04001F5E071022240F821202344BD
:107960000022DA765A60F0BC7047D2F80815D2F8D7
:107970001055C2F814C5C2F80CC50268C2F808C593
:10798000C2F810C5B3E7C1F800257CE7044985E7D4
:10799000B42C00208402020000E100E0000300504B
:1079A00010030200F0B50379524C5B01E51887B073
:1079B0002D7F25B101F06045B5F1005F58D123441A
:1079C0009E7D002E57D19A7599609E8205796D0132
:1079D0006219137F13BB0168C1F81C31D1F81C6117
:1079E000016804960126049F8E600168D2F808C0E1
:1079F000C1F81C31D1F81C310593059B968A938AF6
:107A00005768B6B201331CF806609BB29382C1F886
:107A10001C65002F32D0002007B0F0BD03689168CC
:107A2000C3F82061D3F8203101930368019FC3F8A4
:107A30005861D3F8586103680296967D029FC3F897
:107A40004415C3F848650368012199605368002B09
:107A5000E1D1036801E0002949D1D3F82021D3F80E
:107A60005811002AF7D0002914BF0F20002039E058
:107A7000102007B0F0BD112007B0F0BD967D938AAD
:107A80009E4222D9016804E0938A9BB2B3F5807FBD
:107A900003D0D1F81C31002BF6D0938A9BB2B3F5FA
:107AA000807FECD0C1F81C71D1F81C310393039B8B
:107AB000B2F814E0938A1FFA8EFE01331CF80EE030
:107AC0009BB29382C1F81CE5D9E7938A9BB2B3F5C8
:107AD000807F0CD00268D2F81C31002BFBD0012330
